{
  "_format": "hh-sol-artifact-1",
  "contractName": "EscrowFactory",
  "sourceName": "contracts/EscrowFactory.sol",
  "abi": [
    {
      "anonymous": false,
      "inputs": [
        {
          "indexed": false,
          "internalType": "address",
          "name": "newEscrow",
          "type": "address"
        }
      ],
      "name": "EscrowCreated",
      "type": "event"
    },
    {
      "inputs": [
        {
          "internalType": "address",
          "name": "_arbiter",
          "type": "address"
        },
        {
          "internalType": "address",
          "name": "_beneficiary",
          "type": "address"
        }
      ],
      "name": "createEscrow",
      "outputs": [],
      "stateMutability": "payable",
      "type": "function"
    },
    {
      "inputs": [
        {
          "internalType": "uint256",
          "name": "",
          "type": "uint256"
        }
      ],
      "name": "escrows",
      "outputs": [
        {
          "internalType": "address",
          "name": "",
          "type": "address"
        }
      ],
      "stateMutability": "view",
      "type": "function"
    },
    {
      "inputs": [],
      "name": "getEscrows",
      "outputs": [
        {
          "internalType": "address[]",
          "name": "",
          "type": "address[]"
        }
      ],
      "stateMutability": "view",
      "type": "function"
    },
    {
      "inputs": [
        {
          "internalType": "address",
          "name": "_escrow",
          "type": "address"
        }
      ],
      "name": "removeEscrow",
      "outputs": [],
      "stateMutability": "nonpayable",
      "type": "function"
    }
  ],
  "bytecode": "0x608060405234801561001057600080fd5b50612184806100206000396000f3fe60806040526004361061003f5760003560e01c8063012f52ee146100445780636afcb6da14610081578063834cc6fc146100ac57806393e46744146100c8575b600080fd5b34801561005057600080fd5b5061006b60048036038101906100669190610521565b6100f1565b604051610078919061058f565b60405180910390f35b34801561008d57600080fd5b50610096610130565b6040516100a39190610668565b60405180910390f35b6100c660048036038101906100c191906106b6565b6101be565b005b3480156100d457600080fd5b506100ef60048036038101906100ea91906106f6565b610344565b005b6000818154811061010157600080fd5b906000526020600020016000915054906101000a900473ffffffffffffffffffffffffffffffffffffffff1681565b606060008054806020026020016040519081016040528092919081815260200182805480156101b457602002820191906000526020600020905b8160009054906101000a900473ffffffffffffffffffffffffffffffffffffffff1673ffffffffffffffffffffffffffffffffffffffff168152602001906001019080831161016a575b5050505050905090565b600082826040516101ce906104d9565b6101d9929190610723565b604051809103906000f0801580156101f5573d6000803e3d6000fd5b50905060008173ffffffffffffffffffffffffffffffffffffffff163460405161021e9061077d565b60006040518083038185875af1925050503d806000811461025b576040519150601f19603f3d011682016040523d82523d6000602084013e610260565b606091505b50509050806102a4576040517f08c379a000000000000000000000000000000000000000000000000000000000815260040161029b906107ef565b60405180910390fd5b6000829080600181540180825580915050600190039060005260206000200160009091909190916101000a81548173ffffffffffffffffffffffffffffffffffffffff021916908373ffffffffffffffffffffffffffffffffffffffff1602179055507fdc172423e65e4eb718110c42ad3b66ac4b0a613e4d07bfb55f2477f2d1bf34eb82604051610336919061058f565b60405180910390a150505050565b6000805b6000805490508110156103e1578273ffffffffffffffffffffffffffffffffffffffff16600082815481106103805761037f61080f565b5b9060005260206000200160009054906101000a900473ffffffffffffffffffffffffffffffffffffffff1673ffffffffffffffffffffffffffffffffffffffff16036103ce578091506103e1565b80806103d99061086d565b915050610348565b50600060016000805490506103f691906108b5565b815481106104075761040661080f565b5b9060005260206000200160009054906101000a900473ffffffffffffffffffffffffffffffffffffffff16600082815481106104465761044561080f565b5b9060005260206000200160006101000a81548173ffffffffffffffffffffffffffffffffffffffff021916908373ffffffffffffffffffffffffffffffffffffffff16021790555060008054806104a05761049f6108e9565b5b6001900381819060005260206000200160006101000a81549073ffffffffffffffffffffffffffffffffffffffff021916905590555050565b6118368061091983390190565b600080fd5b6000819050919050565b6104fe816104eb565b811461050957600080fd5b50565b60008135905061051b816104f5565b92915050565b600060208284031215610537576105366104e6565b5b60006105458482850161050c565b91505092915050565b600073ffffffffffffffffffffffffffffffffffffffff82169050919050565b60006105798261054e565b9050919050565b6105898161056e565b82525050565b60006020820190506105a46000830184610580565b92915050565b600081519050919050565b600082825260208201905092915050565b6000819050602082019050919050565b6105df8161056e565b82525050565b60006105f183836105d6565b60208301905092915050565b6000602082019050919050565b6000610615826105aa565b61061f81856105b5565b935061062a836105c6565b8060005b8381101561065b57815161064288826105e5565b975061064d836105fd565b92505060018101905061062e565b5085935050505092915050565b60006020820190508181036000830152610682818461060a565b905092915050565b6106938161056e565b811461069e57600080fd5b50565b6000813590506106b08161068a565b92915050565b600080604083850312156106cd576106cc6104e6565b5b60006106db858286016106a1565b92505060206106ec858286016106a1565b9150509250929050565b60006020828403121561070c5761070b6104e6565b5b600061071a848285016106a1565b91505092915050565b60006040820190506107386000830185610580565b6107456020830184610580565b9392505050565b600081905092915050565b50565b600061076760008361074c565b915061077282610757565b600082019050919050565b60006107888261075a565b9150819050919050565b600082825260208201905092915050565b7f4661696c656420746f2073656e6420657468657220746f20657363726f770000600082015250565b60006107d9601e83610792565b91506107e4826107a3565b602082019050919050565b60006020820190508181036000830152610808816107cc565b9050919050565b7f4e487b7100000000000000000000000000000000000000000000000000000000600052603260045260246000fd5b7f4e487b7100000000000000000000000000000000000000000000000000000000600052601160045260246000fd5b6000610878826104eb565b91507fffffffffffffffffffffffffffffffffffffffffffffffffffffffffffffffff82036108aa576108a961083e565b5b600182019050919050565b60006108c0826104eb565b91506108cb836104eb565b92508282039050818111156108e3576108e261083e565b5b92915050565b7f4e487b7100000000000000000000000000000000000000000000000000000000600052603160045260246000fdfe60e06040526040516200183638038062001836833981810160405281019062000029919062000137565b3273ffffffffffffffffffffffffffffffffffffffff1660808173ffffffffffffffffffffffffffffffffffffffff16815250508173ffffffffffffffffffffffffffffffffffffffff1660c08173ffffffffffffffffffffffffffffffffffffffff16815250508073ffffffffffffffffffffffffffffffffffffffff1660a08173ffffffffffffffffffffffffffffffffffffffff168152505050506200017e565b600080fd5b600073ffffffffffffffffffffffffffffffffffffffff82169050919050565b6000620000ff82620000d2565b9050919050565b6200011181620000f2565b81146200011d57600080fd5b50565b600081519050620001318162000106565b92915050565b60008060408385031215620001515762000150620000cd565b5b6000620001618582860162000120565b9250506020620001748582860162000120565b9150509250929050565b60805160a05160c0516116266200021060003960008181610378015281816104fb0152818161068901528181610dca0152610f0a0152600081816108360152818161085a0152818161099201528181610aae01528181610c360152610d530152600081816103cd0152818161055001528181610d1801528181610da401528181610df20152610e1801526116266000f3fe6080604052600436106100f75760003560e01c8063565a2e2c1161008a578063cffe00f911610059578063cffe00f9146102cb578063e1b7535f146102f6578063e8d9454514610321578063fe25e00a14610338576100fe565b8063565a2e2c1461021f578063713e40531461024a578063b485469014610275578063c7c4ff46146102a0576100fe565b8063269fa128116100c6578063269fa1281461018757806328f371aa146101b257806338af3eed146101dd5780633ccfd60b14610208576100fe565b806305a8bebb146101035780630afc86cd1461012e57806312065fe01461014557806312424e3f14610170576100fe565b366100fe57005b600080fd5b34801561010f57600080fd5b50610118610363565b6040516101259190610f47565b60405180910390f35b34801561013a57600080fd5b50610143610376565b005b34801561015157600080fd5b5061015a6104f1565b6040516101679190610f7b565b60405180910390f35b34801561017c57600080fd5b506101856104f9565b005b34801561019357600080fd5b5061019c6107f4565b6040516101a99190610fce565b60405180910390f35b3480156101be57600080fd5b506101c7610823565b6040516101d49190610f47565b60405180910390f35b3480156101e957600080fd5b506101f2610834565b6040516101ff919061102a565b60405180910390f35b34801561021457600080fd5b5061021d610858565b005b34801561022b57600080fd5b50610234610d4f565b604051610241919061102a565b60405180910390f35b34801561025657600080fd5b5061025f610d77565b60405161026c9190610f47565b60405180910390f35b34801561028157600080fd5b5061028a610d8a565b604051610297919061102a565b60405180910390f35b3480156102ac57600080fd5b506102b5610da2565b6040516102c2919061102a565b60405180910390f35b3480156102d757600080fd5b506102e0610dc6565b6040516102ed919061102a565b60405180910390f35b34801561030257600080fd5b5061030b610dee565b604051610318919061102a565b60405180910390f35b34801561032d57600080fd5b50610336610e16565b005b34801561034457600080fd5b5061034d610f08565b60405161035a919061102a565b60405180910390f35b600060019054906101000a900460ff1681565b7f000000000000000000000000000000000000000000000000000000000000000073ffffffffffffffffffffffffffffffffffffffff163373ffffffffffffffffffffffffffffffffffffffff16148061041b57507f000000000000000000000000000000000000000000000000000000000000000073ffffffffffffffffffffffffffffffffffffffff163373ffffffffffffffffffffffffffffffffffffffff16145b61045a576040517f08c379a0000000000000000000000000000000000000000000000000000000008152600401610451906110c8565b60405180910390fd5b600060019054906101000a900460ff166104a9576040517f08c379a00000000000000000000000000000000000000000000000000000000081526004016104a090611134565b60405180910390fd5b60008060016101000a81548160ff0219169083151502179055507fb27455f7ab4544fbda9654abd9182c9c688ad54daa3d8ebed43e83a717050bb160405160405180910390a1565b600047905090565b7f000000000000000000000000000000000000000000000000000000000000000073ffffffffffffffffffffffffffffffffffffffff163373ffffffffffffffffffffffffffffffffffffffff16148061059e57507f000000000000000000000000000000000000000000000000000000000000000073ffffffffffffffffffffffffffffffffffffffff163373ffffffffffffffffffffffffffffffffffffffff16145b6105dd576040517f08c379a00000000000000000000000000000000000000000000000000000000081526004016105d4906110c8565b60405180910390fd5b60001515600060019054906101000a900460ff16151514610633576040517f08c379a000000000000000000000000000000000000000000000000000000000815260040161062a906111a0565b60405180910390fd5b6000151560008054906101000a900460ff16151514610687576040517f08c379a000000000000000000000000000000000000000000000000000000000815260040161067e9061120c565b60405180910390fd5b7f000000000000000000000000000000000000000000000000000000000000000073ffffffffffffffffffffffffffffffffffffffff163373ffffffffffffffffffffffffffffffffffffffff16036107315760011515600060029054906101000a900460ff16151514610730576040517f08c379a00000000000000000000000000000000000000000000000000000000081526004016107279061129e565b60405180910390fd5b5b600047905080600060036101000a8154817cffffffffffffffffffffffffffffffffffffffffffffffffffffffffff02191690837cffffffffffffffffffffffffffffffffffffffffffffffffffffffffff16021790555060016000806101000a81548160ff0219169083151502179055503373ffffffffffffffffffffffffffffffffffffffff167ff13bfe0b6ec5df39265dccb0a01a09aa4162489c7a083dc6670bde0255d02ca7826040516107e99190610f7b565b60405180910390a250565b600060039054906101000a90047cffffffffffffffffffffffffffffffffffffffffffffffffffffffffff1681565b60008054906101000a900460ff1681565b7f000000000000000000000000000000000000000000000000000000000000000081565b7f000000000000000000000000000000000000000000000000000000000000000073ffffffffffffffffffffffffffffffffffffffff163373ffffffffffffffffffffffffffffffffffffffff16146108e6576040517f08c379a00000000000000000000000000000000000000000000000000000000081526004016108dd9061130a565b60405180910390fd5b6001151560008054906101000a900460ff1615151461093a576040517f08c379a000000000000000000000000000000000000000000000000000000000815260040161093190611376565b60405180910390fd5b60001515600060019054906101000a900460ff16151514610990576040517f08c379a0000000000000000000000000000000000000000000000000000000008152600401610987906113e2565b60405180910390fd5b7f000000000000000000000000000000000000000000000000000000000000000073ffffffffffffffffffffffffffffffffffffffff163373ffffffffffffffffffffffffffffffffffffffff1614610a1e576040517f08c379a0000000000000000000000000000000000000000000000000000000008152600401610a159061130a565b60405180910390fd5b60008060039054906101000a90047cffffffffffffffffffffffffffffffffffffffffffffffffffffffffff167cffffffffffffffffffffffffffffffffffffffffffffffffffffffffff1611610aaa576040517f08c379a0000000000000000000000000000000000000000000000000000000008152600401610aa19061144e565b60405180910390fd5b60007f000000000000000000000000000000000000000000000000000000000000000073ffffffffffffffffffffffffffffffffffffffff16600060039054906101000a90047cffffffffffffffffffffffffffffffffffffffffffffffffffffffffff167cffffffffffffffffffffffffffffffffffffffffffffffffffffffffff16604051610b3a9061149f565b60006040518083038185875af1925050503d8060008114610b77576040519150601f19603f3d011682016040523d82523d6000602084013e610b7c565b606091505b5050905080610bc0576040517f08c379a0000000000000000000000000000000000000000000000000000000008152600401610bb790611500565b60405180910390fd5b60008060036101000a8154817cffffffffffffffffffffffffffffffffffffffffffffffffffffffffff02191690837cffffffffffffffffffffffffffffffffffffffffffffffffffffffffff1602179055507f7084f5476618d8e60b11ef0d7d3f06914655adb8793e28ff7f018d4c76d505d57f0000000000000000000000000000000000000000000000000000000000000000600060039054906101000a90047cffffffffffffffffffffffffffffffffffffffffffffffffffffffffff16604051610c8f92919061155b565b60405180910390a1735fbdb2315678afecb367f032d93f642f64180aa373ffffffffffffffffffffffffffffffffffffffff166393e46744306040518263ffffffff1660e01b8152600401610ce4919061102a565b600060405180830381600087803b158015610cfe57600080fd5b505af1158015610d12573d6000803e3d6000fd5b505050507f000000000000000000000000000000000000000000000000000000000000000073ffffffffffffffffffffffffffffffffffffffff16ff5b60007f0000000000000000000000000000000000000000000000000000000000000000905090565b600060029054906101000a900460ff1681565b735fbdb2315678afecb367f032d93f642f64180aa381565b7f000000000000000000000000000000000000000000000000000000000000000081565b60007f0000000000000000000000000000000000000000000000000000000000000000905090565b60007f0000000000000000000000000000000000000000000000000000000000000000905090565b7f000000000000000000000000000000000000000000000000000000000000000073ffffffffffffffffffffffffffffffffffffffff163373ffffffffffffffffffffffffffffffffffffffff1614610ea4576040517f08c379a0000000000000000000000000000000000000000000000000000000008152600401610e9b906115d0565b60405180910390fd5b6001600060016101000a81548160ff0219169083151502179055506001600060026101000a81548160ff0219169083151502179055507f1b9d8093c082ae4682692b2ce9e67be0af01c764fb16707f715b42ed85c67b5360405160405180910390a1565b7f000000000000000000000000000000000000000000000000000000000000000081565b60008115159050919050565b610f4181610f2c565b82525050565b6000602082019050610f5c6000830184610f38565b92915050565b6000819050919050565b610f7581610f62565b82525050565b6000602082019050610f906000830184610f6c565b92915050565b60007cffffffffffffffffffffffffffffffffffffffffffffffffffffffffff82169050919050565b610fc881610f96565b82525050565b6000602082019050610fe36000830184610fbf565b92915050565b600073ffffffffffffffffffffffffffffffffffffffff82169050919050565b600061101482610fe9565b9050919050565b61102481611009565b82525050565b600060208201905061103f600083018461101b565b92915050565b600082825260208201905092915050565b7f4f6e6c792061726269746572206f72206465706f7369746f722063616e20746160008201527f6b65207468697320616374696f6e000000000000000000000000000000000000602082015250565b60006110b2602e83611045565b91506110bd82611056565b604082019050919050565b600060208201905081810360008301526110e1816110a5565b9050919050565b7f4973737565206973206e6f742072616973656400000000000000000000000000600082015250565b600061111e601383611045565b9150611129826110e8565b602082019050919050565b6000602082019050818103600083015261114d81611111565b9050919050565b7f4973737565206973207261697365642063616e6e6f7420617070726f76650000600082015250565b600061118a601e83611045565b915061119582611154565b602082019050919050565b600060208201905081810360008301526111b98161117d565b9050919050565b7f416c726561647920617070726f76656400000000000000000000000000000000600082015250565b60006111f6601083611045565b9150611201826111c0565b602082019050919050565b60006020820190508181036000830152611225816111e9565b9050919050565b7f417262697465722063616e6e6f7420617070726f76652069662069737375652060008201527f6973206e6f742072616973656400000000000000000000000000000000000000602082015250565b6000611288602d83611045565b91506112938261122c565b604082019050919050565b600060208201905081810360008301526112b78161127b565b9050919050565b7f4f6e6c792062656e65666963696172792063616e207769746864726177000000600082015250565b60006112f4601d83611045565b91506112ff826112be565b602082019050919050565b60006020820190508181036000830152611323816112e7565b9050919050565b7f4e6f7420617070726f7665640000000000000000000000000000000000000000600082015250565b6000611360600c83611045565b915061136b8261132a565b602082019050919050565b6000602082019050818103600083015261138f81611353565b9050919050565b7f4973737565206973207261697365642063616e6e6f7420776974686472617700600082015250565b60006113cc601f83611045565b91506113d782611396565b602082019050919050565b600060208201905081810360008301526113fb816113bf565b9050919050565b7f4e6f7468696e6720746f20776974686472617700000000000000000000000000600082015250565b6000611438601383611045565b915061144382611402565b602082019050919050565b600060208201905081810360008301526114678161142b565b9050919050565b600081905092915050565b50565b600061148960008361146e565b915061149482611479565b600082019050919050565b60006114aa8261147c565b9150819050919050565b7f5472616e73666572206661696c65640000000000000000000000000000000000600082015250565b60006114ea600f83611045565b91506114f5826114b4565b602082019050919050565b60006020820190508181036000830152611519816114dd565b9050919050565b6000819050919050565b600061154561154061153b84610f96565b611520565b610f62565b9050919050565b6115558161152a565b82525050565b6000604082019050611570600083018561101b565b61157d602083018461154c565b9392505050565b7f4f6e6c79206465706f7369746f722063616e2072616973652069737375650000600082015250565b60006115ba601e83611045565b91506115c582611584565b602082019050919050565b600060208201905081810360008301526115e9816115ad565b905091905056fea2646970667358221220f592e27341c753cd2d9ebb963376668ac6bd956cd69083a310bbeb473f14108a64736f6c63430008110033a264697066735822122048aebeb08d13824d89b7dc5f5a9e1ebddd46d453e6a580c747442e34ecbf038c64736f6c63430008110033",
  "linkReferences": {},
  "deployedLinkReferences": {}
}