{
  "_format": "hh-sol-artifact-1",
  "contractName": "Escrow",
  "sourceName": "contracts/Escrow.sol",
  "abi": [
    {
      "inputs": [
        {
          "internalType": "address",
          "name": "_arbiter",
          "type": "address"
        },
        {
          "internalType": "address",
          "name": "_beneficiary",
          "type": "address"
        }
      ],
      "stateMutability": "payable",
      "type": "constructor"
    },
    {
      "anonymous": false,
      "inputs": [
        {
          "indexed": false,
          "internalType": "address",
          "name": "approver",
          "type": "address"
        },
        {
          "indexed": false,
          "internalType": "uint256",
          "name": "amount",
          "type": "uint256"
        }
      ],
      "name": "Approved",
      "type": "event"
    },
    {
      "anonymous": false,
      "inputs": [],
      "name": "IssueRaised",
      "type": "event"
    },
    {
      "anonymous": false,
      "inputs": [],
      "name": "IssueResolved",
      "type": "event"
    },
    {
      "anonymous": false,
      "inputs": [
        {
          "indexed": false,
          "internalType": "address",
          "name": "beneficiary",
          "type": "address"
        },
        {
          "indexed": false,
          "internalType": "uint256",
          "name": "amount",
          "type": "uint256"
        }
      ],
      "name": "Withdrawn",
      "type": "event"
    },
    {
      "inputs": [],
      "name": "amountToWithdraw",
      "outputs": [
        {
          "internalType": "uint256",
          "name": "",
          "type": "uint256"
        }
      ],
      "stateMutability": "view",
      "type": "function"
    },
    {
      "inputs": [],
      "name": "approve",
      "outputs": [],
      "stateMutability": "nonpayable",
      "type": "function"
    },
    {
      "inputs": [],
      "name": "arbiter",
      "outputs": [
        {
          "internalType": "address",
          "name": "",
          "type": "address"
        }
      ],
      "stateMutability": "view",
      "type": "function"
    },
    {
      "inputs": [],
      "name": "beneficiary",
      "outputs": [
        {
          "internalType": "address",
          "name": "",
          "type": "address"
        }
      ],
      "stateMutability": "view",
      "type": "function"
    },
    {
      "inputs": [],
      "name": "depositor",
      "outputs": [
        {
          "internalType": "address",
          "name": "",
          "type": "address"
        }
      ],
      "stateMutability": "view",
      "type": "function"
    },
    {
      "inputs": [],
      "name": "getArbiter",
      "outputs": [
        {
          "internalType": "address",
          "name": "",
          "type": "address"
        }
      ],
      "stateMutability": "view",
      "type": "function"
    },
    {
      "inputs": [],
      "name": "getBalance",
      "outputs": [
        {
          "internalType": "uint256",
          "name": "",
          "type": "uint256"
        }
      ],
      "stateMutability": "view",
      "type": "function"
    },
    {
      "inputs": [],
      "name": "getBeneficiary",
      "outputs": [
        {
          "internalType": "address",
          "name": "",
          "type": "address"
        }
      ],
      "stateMutability": "view",
      "type": "function"
    },
    {
      "inputs": [],
      "name": "getDepositor",
      "outputs": [
        {
          "internalType": "address",
          "name": "",
          "type": "address"
        }
      ],
      "stateMutability": "view",
      "type": "function"
    },
    {
      "inputs": [],
      "name": "haveIssue",
      "outputs": [
        {
          "internalType": "bool",
          "name": "",
          "type": "bool"
        }
      ],
      "stateMutability": "view",
      "type": "function"
    },
    {
      "inputs": [],
      "name": "isApproved",
      "outputs": [
        {
          "internalType": "bool",
          "name": "",
          "type": "bool"
        }
      ],
      "stateMutability": "view",
      "type": "function"
    },
    {
      "inputs": [],
      "name": "isIssueRaised",
      "outputs": [
        {
          "internalType": "bool",
          "name": "",
          "type": "bool"
        }
      ],
      "stateMutability": "view",
      "type": "function"
    },
    {
      "inputs": [],
      "name": "raiseIssue",
      "outputs": [],
      "stateMutability": "nonpayable",
      "type": "function"
    },
    {
      "inputs": [],
      "name": "resolveIssue",
      "outputs": [],
      "stateMutability": "nonpayable",
      "type": "function"
    },
    {
      "inputs": [],
      "name": "withdraw",
      "outputs": [],
      "stateMutability": "nonpayable",
      "type": "function"
    }
  ],
  "bytecode": "0x60e06040526040516200139f3803806200139f833981810160405281019062000029919062000137565b3373ffffffffffffffffffffffffffffffffffffffff1660808173ffffffffffffffffffffffffffffffffffffffff16815250508173ffffffffffffffffffffffffffffffffffffffff1660c08173ffffffffffffffffffffffffffffffffffffffff16815250508073ffffffffffffffffffffffffffffffffffffffff1660a08173ffffffffffffffffffffffffffffffffffffffff168152505050506200017e565b600080fd5b600073ffffffffffffffffffffffffffffffffffffffff82169050919050565b6000620000ff82620000d2565b9050919050565b6200011181620000f2565b81146200011d57600080fd5b50565b600081519050620001318162000106565b92915050565b60008060408385031215620001515762000150620000cd565b5b6000620001618582860162000120565b9250506020620001748582860162000120565b9150509250929050565b60805160a05160c0516111966200020960003960008181610281015281816104040152818161059201528181610a340152610b740152600081816106b5015281816106d901528181610811015281816108a10152818161099601526109d50152600081816102d60152818161045901528181610a0e01528181610a5c0152610a8201526111966000f3fe608060405234801561001057600080fd5b50600436106100f55760003560e01c80633ccfd60b11610097578063cffe00f911610066578063cffe00f914610208578063e1b7535f14610226578063e8d9454514610244578063fe25e00a1461024e576100f5565b80633ccfd60b146101a4578063565a2e2c146101ae578063713e4053146101cc578063c7c4ff46146101ea576100f5565b806312424e3f116100d357806312424e3f14610140578063269fa1281461014a57806328f371aa1461016857806338af3eed14610186576100f5565b806305a8bebb146100fa5780630afc86cd1461011857806312065fe014610122575b600080fd5b61010261026c565b60405161010f9190610bb1565b60405180910390f35b61012061027f565b005b61012a6103fa565b6040516101379190610be5565b60405180910390f35b610148610402565b005b61015261069c565b60405161015f9190610be5565b60405180910390f35b6101706106a2565b60405161017d9190610bb1565b60405180910390f35b61018e6106b3565b60405161019b9190610c41565b60405180910390f35b6101ac6106d7565b005b6101b66109d1565b6040516101c39190610c41565b60405180910390f35b6101d46109f9565b6040516101e19190610bb1565b60405180910390f35b6101f2610a0c565b6040516101ff9190610c41565b60405180910390f35b610210610a30565b60405161021d9190610c41565b60405180910390f35b61022e610a58565b60405161023b9190610c41565b60405180910390f35b61024c610a80565b005b610256610b72565b6040516102639190610c41565b60405180910390f35b600060019054906101000a900460ff1681565b7f000000000000000000000000000000000000000000000000000000000000000073ffffffffffffffffffffffffffffffffffffffff163373ffffffffffffffffffffffffffffffffffffffff16148061032457507f000000000000000000000000000000000000000000000000000000000000000073ffffffffffffffffffffffffffffffffffffffff163373ffffffffffffffffffffffffffffffffffffffff16145b610363576040517f08c379a000000000000000000000000000000000000000000000000000000000815260040161035a90610cdf565b60405180910390fd5b600060019054906101000a900460ff166103b2576040517f08c379a00000000000000000000000000000000000000000000000000000000081526004016103a990610d4b565b60405180910390fd5b60008060016101000a81548160ff0219169083151502179055507fb27455f7ab4544fbda9654abd9182c9c688ad54daa3d8ebed43e83a717050bb160405160405180910390a1565b600047905090565b7f000000000000000000000000000000000000000000000000000000000000000073ffffffffffffffffffffffffffffffffffffffff163373ffffffffffffffffffffffffffffffffffffffff1614806104a757507f000000000000000000000000000000000000000000000000000000000000000073ffffffffffffffffffffffffffffffffffffffff163373ffffffffffffffffffffffffffffffffffffffff16145b6104e6576040517f08c379a00000000000000000000000000000000000000000000000000000000081526004016104dd90610cdf565b60405180910390fd5b60001515600060019054906101000a900460ff1615151461053c576040517f08c379a000000000000000000000000000000000000000000000000000000000815260040161053390610db7565b60405180910390fd5b6000151560008054906101000a900460ff16151514610590576040517f08c379a000000000000000000000000000000000000000000000000000000000815260040161058790610e23565b60405180910390fd5b7f000000000000000000000000000000000000000000000000000000000000000073ffffffffffffffffffffffffffffffffffffffff163373ffffffffffffffffffffffffffffffffffffffff160361063a5760011515600060029054906101000a900460ff16151514610639576040517f08c379a000000000000000000000000000000000000000000000000000000000815260040161063090610eb5565b60405180910390fd5b5b60004790508060018190555060016000806101000a81548160ff0219169083151502179055507ff13bfe0b6ec5df39265dccb0a01a09aa4162489c7a083dc6670bde0255d02ca73382604051610691929190610ed5565b60405180910390a150565b60015481565b60008054906101000a900460ff1681565b7f000000000000000000000000000000000000000000000000000000000000000081565b7f000000000000000000000000000000000000000000000000000000000000000073ffffffffffffffffffffffffffffffffffffffff163373ffffffffffffffffffffffffffffffffffffffff1614610765576040517f08c379a000000000000000000000000000000000000000000000000000000000815260040161075c90610f4a565b60405180910390fd5b6001151560008054906101000a900460ff161515146107b9576040517f08c379a00000000000000000000000000000000000000000000000000000000081526004016107b090610fb6565b60405180910390fd5b60001515600060019054906101000a900460ff1615151461080f576040517f08c379a000000000000000000000000000000000000000000000000000000000815260040161080690611022565b60405180910390fd5b7f000000000000000000000000000000000000000000000000000000000000000073ffffffffffffffffffffffffffffffffffffffff163373ffffffffffffffffffffffffffffffffffffffff161461089d576040517f08c379a000000000000000000000000000000000000000000000000000000000815260040161089490610f4a565b60405180910390fd5b60007f000000000000000000000000000000000000000000000000000000000000000073ffffffffffffffffffffffffffffffffffffffff166001546040516108e590611073565b60006040518083038185875af1925050503d8060008114610922576040519150601f19603f3d011682016040523d82523d6000602084013e610927565b606091505b505090508061096b576040517f08c379a0000000000000000000000000000000000000000000000000000000008152600401610962906110d4565b60405180910390fd5b60006001819055507f7084f5476618d8e60b11ef0d7d3f06914655adb8793e28ff7f018d4c76d505d57f00000000000000000000000000000000000000000000000000000000000000006001546040516109c6929190610ed5565b60405180910390a150565b60007f0000000000000000000000000000000000000000000000000000000000000000905090565b600060029054906101000a900460ff1681565b7f000000000000000000000000000000000000000000000000000000000000000081565b60007f0000000000000000000000000000000000000000000000000000000000000000905090565b60007f0000000000000000000000000000000000000000000000000000000000000000905090565b7f000000000000000000000000000000000000000000000000000000000000000073ffffffffffffffffffffffffffffffffffffffff163373ffffffffffffffffffffffffffffffffffffffff1614610b0e576040517f08c379a0000000000000000000000000000000000000000000000000000000008152600401610b0590611140565b60405180910390fd5b6001600060016101000a81548160ff0219169083151502179055506001600060026101000a81548160ff0219169083151502179055507f1b9d8093c082ae4682692b2ce9e67be0af01c764fb16707f715b42ed85c67b5360405160405180910390a1565b7f000000000000000000000000000000000000000000000000000000000000000081565b60008115159050919050565b610bab81610b96565b82525050565b6000602082019050610bc66000830184610ba2565b92915050565b6000819050919050565b610bdf81610bcc565b82525050565b6000602082019050610bfa6000830184610bd6565b92915050565b600073ffffffffffffffffffffffffffffffffffffffff82169050919050565b6000610c2b82610c00565b9050919050565b610c3b81610c20565b82525050565b6000602082019050610c566000830184610c32565b92915050565b600082825260208201905092915050565b7f4f6e6c792061726269746572206f72206465706f7369746f722063616e20746160008201527f6b65207468697320616374696f6e000000000000000000000000000000000000602082015250565b6000610cc9602e83610c5c565b9150610cd482610c6d565b604082019050919050565b60006020820190508181036000830152610cf881610cbc565b9050919050565b7f4973737565206973206e6f742072616973656400000000000000000000000000600082015250565b6000610d35601383610c5c565b9150610d4082610cff565b602082019050919050565b60006020820190508181036000830152610d6481610d28565b9050919050565b7f4973737565206973207261697365642063616e6e6f7420617070726f76650000600082015250565b6000610da1601e83610c5c565b9150610dac82610d6b565b602082019050919050565b60006020820190508181036000830152610dd081610d94565b9050919050565b7f416c726561647920617070726f76656400000000000000000000000000000000600082015250565b6000610e0d601083610c5c565b9150610e1882610dd7565b602082019050919050565b60006020820190508181036000830152610e3c81610e00565b9050919050565b7f417262697465722063616e6e6f7420617070726f76652069662069737375652060008201527f6973206e6f742072616973656400000000000000000000000000000000000000602082015250565b6000610e9f602d83610c5c565b9150610eaa82610e43565b604082019050919050565b60006020820190508181036000830152610ece81610e92565b9050919050565b6000604082019050610eea6000830185610c32565b610ef76020830184610bd6565b9392505050565b7f4f6e6c792062656e65666963696172792063616e207769746864726177000000600082015250565b6000610f34601d83610c5c565b9150610f3f82610efe565b602082019050919050565b60006020820190508181036000830152610f6381610f27565b9050919050565b7f4e6f7420617070726f7665640000000000000000000000000000000000000000600082015250565b6000610fa0600c83610c5c565b9150610fab82610f6a565b602082019050919050565b60006020820190508181036000830152610fcf81610f93565b9050919050565b7f4973737565206973207261697365642063616e6e6f7420776974686472617700600082015250565b600061100c601f83610c5c565b915061101782610fd6565b602082019050919050565b6000602082019050818103600083015261103b81610fff565b9050919050565b600081905092915050565b50565b600061105d600083611042565b91506110688261104d565b600082019050919050565b600061107e82611050565b9150819050919050565b7f5472616e73666572206661696c65640000000000000000000000000000000000600082015250565b60006110be600f83610c5c565b91506110c982611088565b602082019050919050565b600060208201905081810360008301526110ed816110b1565b9050919050565b7f4f6e6c79206465706f7369746f722063616e2072616973652069737375650000600082015250565b600061112a601e83610c5c565b9150611135826110f4565b602082019050919050565b600060208201905081810360008301526111598161111d565b905091905056fea26469706673582212200beea4b58a2eb50ca88a7f5d308da95ef88a2ef050451858f87d712e0e5b4e1464736f6c63430008110033",
  "linkReferences": {},
  "deployedLinkReferences": {}
}