{
  "_format": "hh-sol-artifact-1",
  "contractName": "Escrow",
  "sourceName": "contracts/Escrow.sol",
  "abi": [
    {
      "inputs": [
        {
          "internalType": "address",
          "name": "_arbiter",
          "type": "address"
        },
        {
          "internalType": "address",
          "name": "_beneficiary",
          "type": "address"
        }
      ],
      "stateMutability": "payable",
      "type": "constructor"
    },
    {
      "anonymous": false,
      "inputs": [
        {
          "indexed": false,
          "internalType": "address",
          "name": "approver",
          "type": "address"
        },
        {
          "indexed": false,
          "internalType": "uint256",
          "name": "amount",
          "type": "uint256"
        }
      ],
      "name": "Approved",
      "type": "event"
    },
    {
      "anonymous": false,
      "inputs": [],
      "name": "IssueRaised",
      "type": "event"
    },
    {
      "anonymous": false,
      "inputs": [],
      "name": "IssueResolved",
      "type": "event"
    },
    {
      "anonymous": false,
      "inputs": [
        {
          "indexed": false,
          "internalType": "address",
          "name": "beneficiary",
          "type": "address"
        },
        {
          "indexed": false,
          "internalType": "uint256",
          "name": "amount",
          "type": "uint256"
        }
      ],
      "name": "Withdrawn",
      "type": "event"
    },
    {
      "inputs": [],
      "name": "amountToWithdraw",
      "outputs": [
        {
          "internalType": "uint256",
          "name": "",
          "type": "uint256"
        }
      ],
      "stateMutability": "view",
      "type": "function"
    },
    {
      "inputs": [],
      "name": "approve",
      "outputs": [],
      "stateMutability": "nonpayable",
      "type": "function"
    },
    {
      "inputs": [],
      "name": "arbiter",
      "outputs": [
        {
          "internalType": "address",
          "name": "",
          "type": "address"
        }
      ],
      "stateMutability": "view",
      "type": "function"
    },
    {
      "inputs": [],
      "name": "beneficiary",
      "outputs": [
        {
          "internalType": "address",
          "name": "",
          "type": "address"
        }
      ],
      "stateMutability": "view",
      "type": "function"
    },
    {
      "inputs": [],
      "name": "depositor",
      "outputs": [
        {
          "internalType": "address",
          "name": "",
          "type": "address"
        }
      ],
      "stateMutability": "view",
      "type": "function"
    },
    {
      "inputs": [],
      "name": "getArbiter",
      "outputs": [
        {
          "internalType": "address",
          "name": "",
          "type": "address"
        }
      ],
      "stateMutability": "view",
      "type": "function"
    },
    {
      "inputs": [],
      "name": "getBalance",
      "outputs": [
        {
          "internalType": "uint256",
          "name": "",
          "type": "uint256"
        }
      ],
      "stateMutability": "view",
      "type": "function"
    },
    {
      "inputs": [],
      "name": "getBeneficiary",
      "outputs": [
        {
          "internalType": "address",
          "name": "",
          "type": "address"
        }
      ],
      "stateMutability": "view",
      "type": "function"
    },
    {
      "inputs": [],
      "name": "getDepositor",
      "outputs": [
        {
          "internalType": "address",
          "name": "",
          "type": "address"
        }
      ],
      "stateMutability": "view",
      "type": "function"
    },
    {
      "inputs": [],
      "name": "haveIssue",
      "outputs": [
        {
          "internalType": "bool",
          "name": "",
          "type": "bool"
        }
      ],
      "stateMutability": "view",
      "type": "function"
    },
    {
      "inputs": [],
      "name": "isApproved",
      "outputs": [
        {
          "internalType": "bool",
          "name": "",
          "type": "bool"
        }
      ],
      "stateMutability": "view",
      "type": "function"
    },
    {
      "inputs": [],
      "name": "raiseIssue",
      "outputs": [],
      "stateMutability": "nonpayable",
      "type": "function"
    },
    {
      "inputs": [],
      "name": "resolveIssue",
      "outputs": [],
      "stateMutability": "nonpayable",
      "type": "function"
    },
    {
      "inputs": [],
      "name": "withdraw",
      "outputs": [],
      "stateMutability": "nonpayable",
      "type": "function"
    }
  ],
  "bytecode": "0x6080604052604051620011193803806200111983398181016040528101906200002991906200015d565b336000806101000a81548173ffffffffffffffffffffffffffffffffffffffff021916908373ffffffffffffffffffffffffffffffffffffffff16021790555081600260006101000a81548173ffffffffffffffffffffffffffffffffffffffff021916908373ffffffffffffffffffffffffffffffffffffffff16021790555080600160006101000a81548173ffffffffffffffffffffffffffffffffffffffff021916908373ffffffffffffffffffffffffffffffffffffffff1602179055505050620001a4565b600080fd5b600073ffffffffffffffffffffffffffffffffffffffff82169050919050565b60006200012582620000f8565b9050919050565b620001378162000118565b81146200014357600080fd5b50565b60008151905062000157816200012c565b92915050565b60008060408385031215620001775762000176620000f3565b5b6000620001878582860162000146565b92505060206200019a8582860162000146565b9150509250929050565b610f6580620001b46000396000f3fe608060405234801561001057600080fd5b50600436106100ea5760003560e01c80633ccfd60b1161008c578063cffe00f911610066578063cffe00f9146101df578063e1b7535f146101fd578063e8d945451461021b578063fe25e00a14610225576100ea565b80633ccfd60b14610199578063565a2e2c146101a3578063c7c4ff46146101c1576100ea565b806312424e3f116100c857806312424e3f14610135578063269fa1281461013f57806328f371aa1461015d57806338af3eed1461017b576100ea565b806305a8bebb146100ef5780630afc86cd1461010d57806312065fe014610117575b600080fd5b6100f7610243565b6040516101049190610a7e565b60405180910390f35b610115610256565b005b61011f610385565b60405161012c9190610ab2565b60405180910390f35b61013d61038d565b005b610147610582565b6040516101549190610ab2565b60405180910390f35b610165610588565b6040516101729190610a7e565b60405180910390f35b61018361059b565b6040516101909190610b0e565b60405180910390f35b6101a16105c1565b005b6101ab6108c5565b6040516101b89190610b0e565b60405180910390f35b6101c96108ef565b6040516101d69190610b0e565b60405180910390f35b6101e7610913565b6040516101f49190610b0e565b60405180910390f35b61020561093d565b6040516102129190610b0e565b60405180910390f35b610223610966565b005b61022d610a3d565b60405161023a9190610b0e565b60405180910390f35b600260159054906101000a900460ff1681565b600260009054906101000a900473ffffffffffffffffffffffffffffffffffffffff1673ffffffffffffffffffffffffffffffffffffffff163373ffffffffffffffffffffffffffffffffffffffff1614806102fd575060008054906101000a900473ffffffffffffffffffffffffffffffffffffffff1673ffffffffffffffffffffffffffffffffffffffff163373ffffffffffffffffffffffffffffffffffffffff16145b61033c576040517f08c379a000000000000000000000000000000000000000000000000000000000815260040161033390610bac565b60405180910390fd5b6000600260156101000a81548160ff0219169083151502179055507fb27455f7ab4544fbda9654abd9182c9c688ad54daa3d8ebed43e83a717050bb160405160405180910390a1565b600047905090565b600260009054906101000a900473ffffffffffffffffffffffffffffffffffffffff1673ffffffffffffffffffffffffffffffffffffffff163373ffffffffffffffffffffffffffffffffffffffff161480610434575060008054906101000a900473ffffffffffffffffffffffffffffffffffffffff1673ffffffffffffffffffffffffffffffffffffffff163373ffffffffffffffffffffffffffffffffffffffff16145b610473576040517f08c379a000000000000000000000000000000000000000000000000000000000815260040161046a90610bac565b60405180910390fd5b60001515600260159054906101000a900460ff161515146104c9576040517f08c379a00000000000000000000000000000000000000000000000000000000081526004016104c090610c18565b60405180910390fd5b60001515600260149054906101000a900460ff1615151461051f576040517f08c379a000000000000000000000000000000000000000000000000000000000815260040161051690610c84565b60405180910390fd5b6000479050806003819055506001600260146101000a81548160ff0219169083151502179055507ff13bfe0b6ec5df39265dccb0a01a09aa4162489c7a083dc6670bde0255d02ca73382604051610577929190610ca4565b60405180910390a150565b60035481565b600260149054906101000a900460ff1681565b600160009054906101000a900473ffffffffffffffffffffffffffffffffffffffff1681565b600160009054906101000a900473ffffffffffffffffffffffffffffffffffffffff1673ffffffffffffffffffffffffffffffffffffffff163373ffffffffffffffffffffffffffffffffffffffff1614610651576040517f08c379a000000000000000000000000000000000000000000000000000000000815260040161064890610d19565b60405180910390fd5b60011515600260149054906101000a900460ff161515146106a7576040517f08c379a000000000000000000000000000000000000000000000000000000000815260040161069e90610d85565b60405180910390fd5b60001515600260159054906101000a900460ff161515146106fd576040517f08c379a00000000000000000000000000000000000000000000000000000000081526004016106f490610df1565b60405180910390fd5b600160009054906101000a900473ffffffffffffffffffffffffffffffffffffffff1673ffffffffffffffffffffffffffffffffffffffff163373ffffffffffffffffffffffffffffffffffffffff161461078d576040517f08c379a000000000000000000000000000000000000000000000000000000000815260040161078490610d19565b60405180910390fd5b6000600160009054906101000a900473ffffffffffffffffffffffffffffffffffffffff1673ffffffffffffffffffffffffffffffffffffffff166003546040516107d790610e42565b60006040518083038185875af1925050503d8060008114610814576040519150601f19603f3d011682016040523d82523d6000602084013e610819565b606091505b505090508061085d576040517f08c379a000000000000000000000000000000000000000000000000000000000815260040161085490610ea3565b60405180910390fd5b60006003819055507f7084f5476618d8e60b11ef0d7d3f06914655adb8793e28ff7f018d4c76d505d5600160009054906101000a900473ffffffffffffffffffffffffffffffffffffffff166003546040516108ba929190610ca4565b60405180910390a150565b6000600160009054906101000a900473ffffffffffffffffffffffffffffffffffffffff16905090565b60008054906101000a900473ffffffffffffffffffffffffffffffffffffffff1681565b6000600260009054906101000a900473ffffffffffffffffffffffffffffffffffffffff16905090565b60008060009054906101000a900473ffffffffffffffffffffffffffffffffffffffff16905090565b60008054906101000a900473ffffffffffffffffffffffffffffffffffffffff1673ffffffffffffffffffffffffffffffffffffffff163373ffffffffffffffffffffffffffffffffffffffff16146109f4576040517f08c379a00000000000000000000000000000000000000000000000000000000081526004016109eb90610f0f565b60405180910390fd5b6001600260156101000a81548160ff0219169083151502179055507f1b9d8093c082ae4682692b2ce9e67be0af01c764fb16707f715b42ed85c67b5360405160405180910390a1565b600260009054906101000a900473ffffffffffffffffffffffffffffffffffffffff1681565b60008115159050919050565b610a7881610a63565b82525050565b6000602082019050610a936000830184610a6f565b92915050565b6000819050919050565b610aac81610a99565b82525050565b6000602082019050610ac76000830184610aa3565b92915050565b600073ffffffffffffffffffffffffffffffffffffffff82169050919050565b6000610af882610acd565b9050919050565b610b0881610aed565b82525050565b6000602082019050610b236000830184610aff565b92915050565b600082825260208201905092915050565b7f4f6e6c792061726269746572206f72206465706f7369746f722063616e20746160008201527f6b65207468697320616374696f6e000000000000000000000000000000000000602082015250565b6000610b96602e83610b29565b9150610ba182610b3a565b604082019050919050565b60006020820190508181036000830152610bc581610b89565b9050919050565b7f4973737565206973207261697365642063616e6e6f7420617070726f76650000600082015250565b6000610c02601e83610b29565b9150610c0d82610bcc565b602082019050919050565b60006020820190508181036000830152610c3181610bf5565b9050919050565b7f416c726561647920617070726f76656400000000000000000000000000000000600082015250565b6000610c6e601083610b29565b9150610c7982610c38565b602082019050919050565b60006020820190508181036000830152610c9d81610c61565b9050919050565b6000604082019050610cb96000830185610aff565b610cc66020830184610aa3565b9392505050565b7f4f6e6c792062656e65666963696172792063616e207769746864726177000000600082015250565b6000610d03601d83610b29565b9150610d0e82610ccd565b602082019050919050565b60006020820190508181036000830152610d3281610cf6565b9050919050565b7f4e6f7420617070726f7665640000000000000000000000000000000000000000600082015250565b6000610d6f600c83610b29565b9150610d7a82610d39565b602082019050919050565b60006020820190508181036000830152610d9e81610d62565b9050919050565b7f4973737565206973207261697365642063616e6e6f7420776974686472617700600082015250565b6000610ddb601f83610b29565b9150610de682610da5565b602082019050919050565b60006020820190508181036000830152610e0a81610dce565b9050919050565b600081905092915050565b50565b6000610e2c600083610e11565b9150610e3782610e1c565b600082019050919050565b6000610e4d82610e1f565b9150819050919050565b7f5472616e73666572206661696c65640000000000000000000000000000000000600082015250565b6000610e8d600f83610b29565b9150610e9882610e57565b602082019050919050565b60006020820190508181036000830152610ebc81610e80565b9050919050565b7f4f6e6c79206465706f7369746f722063616e2072616973652069737375650000600082015250565b6000610ef9601e83610b29565b9150610f0482610ec3565b602082019050919050565b60006020820190508181036000830152610f2881610eec565b905091905056fea264697066735822122099abc192f38e5510b8db2bd049f2f70fd9a04464da3be4dc99b184de8489d27a64736f6c63430008110033",
  "linkReferences": {},
  "deployedLinkReferences": {}
}